{
  "contractName": "AddressBook",
  "abi": [
    {
      "constant": false,
      "inputs": [],
      "name": "renounceOwnership",
      "outputs": [],
      "payable": false,
      "stateMutability": "nonpayable",
      "type": "function"
    },
    {
      "constant": true,
      "inputs": [],
      "name": "owner",
      "outputs": [
        {
          "name": "",
          "type": "address"
        }
      ],
      "payable": false,
      "stateMutability": "view",
      "type": "function"
    },
    {
      "constant": true,
      "inputs": [],
      "name": "isOwner",
      "outputs": [
        {
          "name": "",
          "type": "bool"
        }
      ],
      "payable": false,
      "stateMutability": "view",
      "type": "function"
    },
    {
      "constant": false,
      "inputs": [
        {
          "name": "newOwner",
          "type": "address"
        }
      ],
      "name": "transferOwnership",
      "outputs": [],
      "payable": false,
      "stateMutability": "nonpayable",
      "type": "function"
    },
    {
      "inputs": [],
      "payable": false,
      "stateMutability": "nonpayable",
      "type": "constructor"
    },
    {
      "anonymous": false,
      "inputs": [
        {
          "indexed": true,
          "name": "participant",
          "type": "address"
        },
        {
          "indexed": false,
          "name": "zipCode",
          "type": "uint32"
        }
      ],
      "name": "ParticipantAdded",
      "type": "event"
    },
    {
      "anonymous": false,
      "inputs": [
        {
          "indexed": true,
          "name": "previousOwner",
          "type": "address"
        },
        {
          "indexed": true,
          "name": "newOwner",
          "type": "address"
        }
      ],
      "name": "OwnershipTransferred",
      "type": "event"
    },
    {
      "constant": false,
      "inputs": [
        {
          "name": "name",
          "type": "string"
        },
        {
          "name": "participant",
          "type": "address"
        },
        {
          "name": "quorum",
          "type": "string"
        },
        {
          "name": "zipCode",
          "type": "uint32"
        }
      ],
      "name": "addParticipantZipCode",
      "outputs": [],
      "payable": false,
      "stateMutability": "nonpayable",
      "type": "function"
    },
    {
      "constant": true,
      "inputs": [
        {
          "name": "participant",
          "type": "address"
        }
      ],
      "name": "checkGeoBoundaries",
      "outputs": [
        {
          "name": "",
          "type": "bool"
        }
      ],
      "payable": false,
      "stateMutability": "view",
      "type": "function"
    },
    {
      "constant": true,
      "inputs": [
        {
          "name": "name",
          "type": "string"
        }
      ],
      "name": "getEthereumAddress",
      "outputs": [
        {
          "name": "",
          "type": "address"
        }
      ],
      "payable": false,
      "stateMutability": "view",
      "type": "function"
    },
    {
      "constant": true,
      "inputs": [
        {
          "name": "name",
          "type": "string"
        }
      ],
      "name": "getQuorumAddress",
      "outputs": [
        {
          "name": "",
          "type": "string"
        }
      ],
      "payable": false,
      "stateMutability": "view",
      "type": "function"
    },
    {
      "constant": true,
      "inputs": [
        {
          "name": "_address",
          "type": "address"
        }
      ],
      "name": "getQuorumAddressFromName",
      "outputs": [
        {
          "name": "",
          "type": "string"
        }
      ],
      "payable": false,
      "stateMutability": "view",
      "type": "function"
    }
  ],
  "bytecode": "0x608060405234801561001057600080fd5b50336000806101000a81548173ffffffffffffffffffffffffffffffffffffffff021916908373ffffffffffffffffffffffffffffffffffffffff1602179055506000809054906101000a900473ffffffffffffffffffffffffffffffffffffffff1673ffffffffffffffffffffffffffffffffffffffff16600073ffffffffffffffffffffffffffffffffffffffff167f8be0079c531659141344cd1fd0a4f28419497f9722a3daafe3b4186f6b6457e060405160405180910390a360016005600062011f9463ffffffff16815260200190815260200160002060006101000a81548160ff02191690831515021790555060016005600062011dfa63ffffffff16815260200190815260200160002060006101000a81548160ff02191690831515021790555060016005600062011e3663ffffffff16815260200190815260200160002060006101000a81548160ff021916908315150217905550610c858061017b6000396000f3fe608060405260043610610099576000357c0100000000000000000000000000000000000000000000000000000000900463ffffffff1680635312a1ce1461009e578063715018a6146101a65780638da5cb5b146101bd5780638f32d59b14610214578063a7e8b1e314610243578063ab87d0041461030d578063e3b58bb014610376578063f2fde38b146104b7578063f775c34914610508575b600080fd5b3480156100aa57600080fd5b50610164600480360360208110156100c157600080fd5b81019080803590602001906401000000008111156100de57600080fd5b8201836020820111156100f057600080fd5b8035906020019184600183028401116401000000008311171561011257600080fd5b91908080601f016020809104026020016040519081016040528093929190818152602001838380828437600081840152601f19601f820116905080830192505050505050509192919290505050610613565b604051808273ffffffffffffffffffffffffffffffffffffffff1673ffffffffffffffffffffffffffffffffffffffff16815260200191505060405180910390f35b3480156101b257600080fd5b506101bb6106a8565b005b3480156101c957600080fd5b506101d261077a565b604051808273ffffffffffffffffffffffffffffffffffffffff1673ffffffffffffffffffffffffffffffffffffffff16815260200191505060405180910390f35b34801561022057600080fd5b506102296107a3565b604051808215151515815260200191505060405180910390f35b34801561024f57600080fd5b506102926004803603602081101561026657600080fd5b81019080803573ffffffffffffffffffffffffffffffffffffffff1690602001909291905050506107fa565b6040518080602001828103825283818151815260200191508051906020019080838360005b838110156102d25780820151818401526020810190506102b7565b50505050905090810190601f1680156102ff5780820380516001836020036101000a031916815260200191505b509250505060405180910390f35b34801561031957600080fd5b5061035c6004803603602081101561033057600080fd5b81019080803573ffffffffffffffffffffffffffffffffffffffff1690602001909291905050506108db565b604051808215151515815260200191505060405180910390f35b34801561038257600080fd5b5061043c6004803603602081101561039957600080fd5b81019080803590602001906401000000008111156103b657600080fd5b8201836020820111156103c857600080fd5b803590602001918460018302840111640100000000831117156103ea57600080fd5b91908080601f016020809104026020016040519081016040528093929190818152602001838380828437600081840152601f19601f820116905080830192505050505050509192919290505050610960565b6040518080602001828103825283818151815260200191508051906020019080838360005b8381101561047c578082015181840152602081019050610461565b50505050905090810190601f1680156104a95780820380516001836020036101000a031916815260200191505b509250505060405180910390f35b3480156104c357600080fd5b50610506600480360360208110156104da57600080fd5b81019080803573ffffffffffffffffffffffffffffffffffffffff169060200190929190505050610a6d565b005b34801561051457600080fd5b506106116004803603608081101561052b57600080fd5b810190808035906020019064010000000081111561054857600080fd5b82018360208201111561055a57600080fd5b8035906020019184600183028401116401000000008311171561057c57600080fd5b9091929391929390803573ffffffffffffffffffffffffffffffffffffffff169060200190929190803590602001906401000000008111156105bd57600080fd5b8201836020820111156105cf57600080fd5b803590602001918460018302840111640100000000831117156105f157600080fd5b9091929391929390803563ffffffff169060200190929190505050610a8c565b005b60006002826040518082805190602001908083835b60208310151561064d5780518252602082019150602081019050602083039250610628565b6001836020036101000a038019825116818451168082178552505050505050905001915050908152602001604051809103902060009054906101000a900473ffffffffffffffffffffffffffffffffffffffff169050919050565b6106b06107a3565b15156106bb57600080fd5b600073ffffffffffffffffffffffffffffffffffffffff166000809054906101000a900473ffffffffffffffffffffffffffffffffffffffff1673ffffffffffffffffffffffffffffffffffffffff167f8be0079c531659141344cd1fd0a4f28419497f9722a3daafe3b4186f6b6457e060405160405180910390a360008060006101000a81548173ffffffffffffffffffffffffffffffffffffffff021916908373ffffffffffffffffffffffffffffffffffffffff160217905550565b60008060009054906101000a900473ffffffffffffffffffffffffffffffffffffffff16905090565b60008060009054906101000a900473ffffffffffffffffffffffffffffffffffffffff1673ffffffffffffffffffffffffffffffffffffffff163373ffffffffffffffffffffffffffffffffffffffff1614905090565b6060600460008373ffffffffffffffffffffffffffffffffffffffff1673ffffffffffffffffffffffffffffffffffffffff1681526020019081526020016000208054600181600116156101000203166002900480601f0160208091040260200160405190810160405280929190818152602001828054600181600116156101000203166002900480156108cf5780601f106108a4576101008083540402835291602001916108cf565b820191906000526020600020905b8154815290600101906020018083116108b257829003601f168201915b50505050509050919050565b600060056000600160008573ffffffffffffffffffffffffffffffffffffffff1673ffffffffffffffffffffffffffffffffffffffff16815260200190815260200160002060009054906101000a900463ffffffff1663ffffffff1663ffffffff16815260200190815260200160002060009054906101000a900460ff169050919050565b60606003826040518082805190602001908083835b60208310151561099a5780518252602082019150602081019050602083039250610975565b6001836020036101000a03801982511681845116808217855250505050505090500191505090815260200160405180910390208054600181600116156101000203166002900480601f016020809104026020016040519081016040528092919081815260200182805460018160011615610100020316600290048015610a615780601f10610a3657610100808354040283529160200191610a61565b820191906000526020600020905b815481529060010190602001808311610a4457829003601f168201915b50505050509050919050565b610a756107a3565b1515610a8057600080fd5b610a8981610b5f565b50565b610a946107a3565b1515610a9f57600080fd5b80600160008673ffffffffffffffffffffffffffffffffffffffff1673ffffffffffffffffffffffffffffffffffffffff16815260200190815260200160002060006101000a81548163ffffffff021916908363ffffffff1602179055508373ffffffffffffffffffffffffffffffffffffffff167f574693dd8e03942385d7a6016874d613060b5190475aba0fcdeb16e8cc20d2de82604051808263ffffffff1663ffffffff16815260200191505060405180910390a2505050505050565b600073ffffffffffffffffffffffffffffffffffffffff168173ffffffffffffffffffffffffffffffffffffffff1614151515610b9b57600080fd5b8073ffffffffffffffffffffffffffffffffffffffff166000809054906101000a900473ffffffffffffffffffffffffffffffffffffffff1673ffffffffffffffffffffffffffffffffffffffff167f8be0079c531659141344cd1fd0a4f28419497f9722a3daafe3b4186f6b6457e060405160405180910390a3806000806101000a81548173ffffffffffffffffffffffffffffffffffffffff021916908373ffffffffffffffffffffffffffffffffffffffff1602179055505056fea165627a7a723058200fea216c7d4c22b77415f1968b0e96e4e0852486b8369c38f712eb59c0d8647b0029",
  "source": "pragma solidity ^0.5.0;\r\nimport 'openzeppelin-solidity/contracts/ownership/Ownable.sol';\r\n\r\n/// @title An address book for zip code of participants\r\ncontract AddressBook is Ownable {\r\n  mapping(address => uint32) private participantsZipCode;\r\n  mapping(string => address) private indexEthereumAddress;\r\n  mapping(string => string) private indexQuorumAddress;\r\n  mapping(address => string) private quorumAddresses;\r\n  mapping(uint32 => bool) private isValidZipCode;\r\n\r\n  constructor() public {\r\n    isValidZipCode[73620] = true;\r\n    isValidZipCode[73210] = true;\r\n    isValidZipCode[73270] = true;\r\n\r\n  }\r\n\r\n  event ParticipantAdded(address indexed participant, uint32 zipCode);\r\n\r\n  /// Adds a participant zip zip code\r\n  /// @dev should only be called by the owner of this contract\r\n  /// @param participant the participant for which the zip code should be added\r\n  /// @param zipCode the zip code of the participant\r\n  function addParticipantZipCode(string calldata name,address participant, string calldata quorum, uint32 zipCode) onlyOwner external {\r\n    // add the participants to the mapping\r\n    participantsZipCode[participant] = zipCode;\r\n    // emit ParticipantAdded event\r\n    emit ParticipantAdded(participant, zipCode);\r\n  }\r\n\r\n  /// Checks if the participant is in the geo boundaries for the AOP label\r\n  /// @param participant the address of the participant to check\r\n  /// @return true if the participant is in the geo boundaries of the AOP label\r\n  function checkGeoBoundaries(address participant) public view returns (bool) {\r\n    // check if the participant is in the allowed zip codes\r\n    return isValidZipCode[participantsZipCode[participant]];\r\n  }\r\n\r\n  function getEthereumAddress(string memory name) public view returns (address) {\r\n    return indexEthereumAddress[name];\r\n  }\r\n\r\n  function getQuorumAddress(string memory name) public view returns (string memory) {\r\n    return indexQuorumAddress[name];\r\n  }\r\n\r\n  function getQuorumAddressFromName(address _address) public view returns (string memory) {\r\n    return quorumAddresses[_address];\r\n  }\r\n\r\n}\r\n",
  "sourcePath": "C:\\Users\\Lansana Diomande\\Documents\\tp-quorum-public\\contracts\\AddressBook.sol",
  "compiler": {
    "name": "solc",
    "version": "0.5.0+commit.1d4f565a.Emscripten.clang"
  },
  "schemaVersion": "3.0.22",
  "updatedAt": "2021-11-16T10:27:32.939Z",
  "networkType": "quorum",
  "devdoc": {
    "methods": {
      "addParticipantZipCode(string,address,string,uint32)": {
        "params": {
          "zipCode": "the zip code of the participant"
        }
      },
      "checkGeoBoundaries(address)": {
        "return": "true if the participant is in the geo boundaries of the AOP label"
      },
      "isOwner()": {
        "return": "true if `msg.sender` is the owner of the contract."
      },
      "owner()": {
        "return": "the address of the owner."
      },
      "renounceOwnership()": {
        "details": "Allows the current owner to relinquish control of the contract."
      },
      "transferOwnership(address)": {
        "details": "Allows the current owner to transfer control of the contract to a newOwner.",
        "params": {
          "newOwner": "The address to transfer ownership to."
        }
      }
    },
    "title": "An address book for zip code of participants"
  },
  "userdoc": {
    "methods": {
      "renounceOwnership()": {
        "notice": "Renouncing to ownership will leave the contract without an owner. It will not be possible to call the functions with the `onlyOwner` modifier anymore."
      }
    }
  }
}