{
  "contractName": "DairyProduction",
  "abi": [
    {
      "constant": true,
      "inputs": [],
      "name": "quantity",
      "outputs": [
        {
          "name": "",
          "type": "uint32"
        }
      ],
      "payable": false,
      "stateMutability": "view",
      "type": "function"
    },
    {
      "constant": true,
      "inputs": [],
      "name": "dairy",
      "outputs": [
        {
          "name": "",
          "type": "address"
        }
      ],
      "payable": false,
      "stateMutability": "view",
      "type": "function"
    },
    {
      "constant": true,
      "inputs": [
        {
          "name": "",
          "type": "uint256"
        }
      ],
      "name": "milkDeliveries",
      "outputs": [
        {
          "name": "",
          "type": "address"
        }
      ],
      "payable": false,
      "stateMutability": "view",
      "type": "function"
    },
    {
      "anonymous": false,
      "inputs": [
        {
          "indexed": true,
          "name": "dairyProductionAddress",
          "type": "address"
        },
        {
          "indexed": true,
          "name": "dairy",
          "type": "address"
        },
        {
          "indexed": false,
          "name": "quantity",
          "type": "uint32"
        }
      ],
      "name": "CheeseProduced",
      "type": "event"
    }
  ],
  "bytecode": "0x608060405234801561001057600080fd5b5061020a806100206000396000f3fe608060405260043610610057576000357c0100000000000000000000000000000000000000000000000000000000900463ffffffff16806317fc45e21461005c57806349ea420c146100935780634ca5d142146100ea575b600080fd5b34801561006857600080fd5b50610071610165565b604051808263ffffffff1663ffffffff16815260200191505060405180910390f35b34801561009f57600080fd5b506100a861017a565b604051808273ffffffffffffffffffffffffffffffffffffffff1673ffffffffffffffffffffffffffffffffffffffff16815260200191505060405180910390f35b3480156100f657600080fd5b506101236004803603602081101561010d57600080fd5b81019080803590602001909291905050506101a0565b604051808273ffffffffffffffffffffffffffffffffffffffff1673ffffffffffffffffffffffffffffffffffffffff16815260200191505060405180910390f35b6000809054906101000a900463ffffffff1681565b600260009054906101000a900473ffffffffffffffffffffffffffffffffffffffff1681565b6001818154811015156101af57fe5b906000526020600020016000915054906101000a900473ffffffffffffffffffffffffffffffffffffffff168156fea165627a7a723058207b9ff6e43e294ffec79156587b3095d4ab2e14efe7c046ed59da2f8cbe7e819a0029",
  "source": "pragma solidity ^0.5.0;\r\n\r\nimport \"./MilkDelivery.sol\";\r\nimport \"./AddressBook.sol\";\r\n\r\n\r\ncontract DairyProduction {\r\n    uint32 public quantity;\r\n    address[] public milkDeliveries;\r\n    address public dairy;\r\n    address addressBookAddress;\r\n\r\n    event CheeseProduced(address indexed dairyProductionAddress, address indexed dairy, uint32 quantity);\r\n\r\n}\r\n",
  "sourcePath": "C:\\Users\\asane\\Documents\\SaveDocument\\Document\\tp-quorum-public\\contracts\\DairyProduction.sol",
  "compiler": {
    "name": "solc",
    "version": "0.5.0+commit.1d4f565a.Emscripten.clang"
  },
  "schemaVersion": "3.4.3",
  "updatedAt": "2021-11-23T08:31:06.264Z",
  "devdoc": {
    "methods": {}
  },
  "userdoc": {
    "methods": {}
  }
}