{
  "contractName": "DairyProduction",
  "abi": [
    {
      "constant": true,
      "inputs": [],
      "name": "quantity",
      "outputs": [
        {
          "name": "",
          "type": "uint32"
        }
      ],
      "payable": false,
      "stateMutability": "view",
      "type": "function"
    },
    {
      "constant": true,
      "inputs": [],
      "name": "dairy",
      "outputs": [
        {
          "name": "",
          "type": "address"
        }
      ],
      "payable": false,
      "stateMutability": "view",
      "type": "function"
    },
    {
      "constant": true,
      "inputs": [
        {
          "name": "",
          "type": "uint256"
        }
      ],
      "name": "milkDeliveries",
      "outputs": [
        {
          "name": "",
          "type": "address"
        }
      ],
      "payable": false,
      "stateMutability": "view",
      "type": "function"
    },
    {
      "inputs": [
        {
          "name": "_addressBookAddress",
          "type": "address"
        }
      ],
      "payable": false,
      "stateMutability": "nonpayable",
      "type": "constructor"
    },
    {
      "anonymous": false,
      "inputs": [
        {
          "indexed": true,
          "name": "dairyProductionAddress",
          "type": "address"
        },
        {
          "indexed": true,
          "name": "dairy",
          "type": "address"
        },
        {
          "indexed": false,
          "name": "quantity",
          "type": "uint32"
        }
      ],
      "name": "CheeseProduced",
      "type": "event"
    },
    {
      "constant": false,
      "inputs": [
        {
          "name": "_quantity",
          "type": "uint32"
        },
        {
          "name": "_milkDeliveries",
          "type": "address[]"
        }
      ],
      "name": "makeCheese",
      "outputs": [
        {
          "name": "",
          "type": "address"
        }
      ],
      "payable": false,
      "stateMutability": "nonpayable",
      "type": "function"
    },
    {
      "constant": true,
      "inputs": [],
      "name": "checkGeoBoundaries",
      "outputs": [
        {
          "name": "",
          "type": "bool"
        }
      ],
      "payable": false,
      "stateMutability": "view",
      "type": "function"
    },
    {
      "constant": true,
      "inputs": [],
      "name": "getMilkDeliveriesCount",
      "outputs": [
        {
          "name": "",
          "type": "uint256"
        }
      ],
      "payable": false,
      "stateMutability": "view",
      "type": "function"
    }
  ],
  "bytecode": "0x608060405234801561001057600080fd5b50604051602080610ad58339810180604052602081101561003057600080fd5b8101908080519060200190929190505050600073ffffffffffffffffffffffffffffffffffffffff168173ffffffffffffffffffffffffffffffffffffffff161415151561007d57600080fd5b80600360006101000a81548173ffffffffffffffffffffffffffffffffffffffff021916908373ffffffffffffffffffffffffffffffffffffffff16021790555050610a07806100ce6000396000f3fe608060405260043610610078576000357c0100000000000000000000000000000000000000000000000000000000900463ffffffff16806317fc45e21461007d5780634651cb73146100b457806349ea420c146100e35780634ca5d1421461013a5780635deb769f146101b557806371529a47146101e0575b600080fd5b34801561008957600080fd5b506100926102f5565b604051808263ffffffff1663ffffffff16815260200191505060405180910390f35b3480156100c057600080fd5b506100c961030a565b604051808215151515815260200191505060405180910390f35b3480156100ef57600080fd5b506100f8610698565b604051808273ffffffffffffffffffffffffffffffffffffffff1673ffffffffffffffffffffffffffffffffffffffff16815260200191505060405180910390f35b34801561014657600080fd5b506101736004803603602081101561015d57600080fd5b81019080803590602001909291905050506106be565b604051808273ffffffffffffffffffffffffffffffffffffffff1673ffffffffffffffffffffffffffffffffffffffff16815260200191505060405180910390f35b3480156101c157600080fd5b506101ca6106fc565b6040518082815260200191505060405180910390f35b3480156101ec57600080fd5b506102b36004803603604081101561020357600080fd5b81019080803563ffffffff1690602001909291908035906020019064010000000081111561023057600080fd5b82018360208201111561024257600080fd5b8035906020019184602083028401116401000000008311171561026457600080fd5b919080806020026020016040519081016040528093929190818152602001838360200280828437600081840152601f19601f820116905080830192505050505050509192919290505050610709565b604051808273ffffffffffffffffffffffffffffffffffffffff1673ffffffffffffffffffffffffffffffffffffffff16815260200191505060405180910390f35b6000809054906101000a900463ffffffff1681565b600080600190506000600360009054906101000a900473ffffffffffffffffffffffffffffffffffffffff16905060008090505b60018054905081101561068f57600060018281548110151561035c57fe5b9060005260206000200160009054906101000a900473ffffffffffffffffffffffffffffffffffffffff1690508273ffffffffffffffffffffffffffffffffffffffff1663ab87d0048273ffffffffffffffffffffffffffffffffffffffff1663c80df7996040518163ffffffff167c010000000000000000000000000000000000000000000000000000000002815260040160206040518083038186803b15801561040757600080fd5b505afa15801561041b573d6000803e3d6000fd5b505050506040513d602081101561043157600080fd5b81019080805190602001909291905050506040518263ffffffff167c0100000000000000000000000000000000000000000000000000000000028152600401808273ffffffffffffffffffffffffffffffffffffffff1673ffffffffffffffffffffffffffffffffffffffff16815260200191505060206040518083038186803b1580156104be57600080fd5b505afa1580156104d2573d6000803e3d6000fd5b505050506040513d60208110156104e857600080fd5b8101908080519060200190929190505050158061067257508273ffffffffffffffffffffffffffffffffffffffff1663ab87d0048273ffffffffffffffffffffffffffffffffffffffff166349f6c29b6040518163ffffffff167c010000000000000000000000000000000000000000000000000000000002815260040160206040518083038186803b15801561057e57600080fd5b505afa158015610592573d6000803e3d6000fd5b505050506040513d60208110156105a857600080fd5b81019080805190602001909291905050506040518263ffffffff167c0100000000000000000000000000000000000000000000000000000000028152600401808273ffffffffffffffffffffffffffffffffffffffff1673ffffffffffffffffffffffffffffffffffffffff16815260200191505060206040518083038186803b15801561063557600080fd5b505afa158015610649573d6000803e3d6000fd5b505050506040513d602081101561065f57600080fd5b8101908080519060200190929190505050155b1561068157600093505061068f565b50808060010191505061033e565b50819250505090565b600260009054906101000a900473ffffffffffffffffffffffffffffffffffffffff1681565b6001818154811015156106cd57fe5b906000526020600020016000915054906101000a900473ffffffffffffffffffffffffffffffffffffffff1681565b6000600180549050905090565b6000826000806101000a81548163ffffffff021916908363ffffffff160217905550816001908051906020019061074192919061090e565b5033600260006101000a81548173ffffffffffffffffffffffffffffffffffffffff021916908373ffffffffffffffffffffffffffffffffffffffff16021790555060008090505b60018054905081101561085e5760006001828154811015156107a757fe5b9060005260206000200160009054906101000a900473ffffffffffffffffffffffffffffffffffffffff1690508073ffffffffffffffffffffffffffffffffffffffff16631dedc6f76040518163ffffffff167c0100000000000000000000000000000000000000000000000000000000028152600401600060405180830381600087803b15801561083857600080fd5b505af115801561084c573d6000803e3d6000fd5b50505050508080600101915050610789565b50600260009054906101000a900473ffffffffffffffffffffffffffffffffffffffff1673ffffffffffffffffffffffffffffffffffffffff16600a73ffffffffffffffffffffffffffffffffffffffff167ffe5848192e84c7989585881de6861e3b7cd2cd708c14ff11d152ce10447fd1af6000809054906101000a900463ffffffff16604051808263ffffffff1663ffffffff16815260200191505060405180910390a3600a905092915050565b828054828255906000526020600020908101928215610987579160200282015b828111156109865782518260006101000a81548173ffffffffffffffffffffffffffffffffffffffff021916908373ffffffffffffffffffffffffffffffffffffffff1602179055509160200191906001019061092e565b5b5090506109949190610998565b5090565b6109d891905b808211156109d457600081816101000a81549073ffffffffffffffffffffffffffffffffffffffff02191690555060010161099e565b5090565b9056fea165627a7a7230582005a6a0c017fe6a081fcf4e2a269435d3b94aec8ce6e35f3002fd4bd02bbff9be0029",
  "source": "pragma solidity ^0.5.0;\n\nimport \"./MilkDelivery.sol\";\nimport \"./AddressBook.sol\";\n\n\ncontract DairyProduction {\n    uint32 public quantity;\n    address[] public milkDeliveries;\n    address public dairy;\n    address addressBookAddress;\n\n    event CheeseProduced(address indexed dairyProductionAddress, address indexed dairy, uint32 quantity);\n\n    constructor(address _addressBookAddress) public {\n        require(_addressBookAddress != address(0));\n        addressBookAddress = _addressBookAddress;\n    }\n\n    function makeCheese(uint32 _quantity, address[] memory _milkDeliveries) public returns (address) {\n        quantity = _quantity;\n        milkDeliveries = _milkDeliveries;\n        dairy = msg.sender;\n        for(uint i = 0; i < milkDeliveries.length; i++){\n            MilkDelivery milk = MilkDelivery(milkDeliveries[i]);\n            milk.consume();\n        }\n        emit CheeseProduced(address(10), dairy, quantity);\n        return address(10);\n    }\n\n    /// Checks if all parties in the smart-contract are geo compliant.\n    /// @dev checks all milk producers and the dairy using the AddressBook\n    /// @return true if all parties are geo compliant\n    function checkGeoBoundaries() public view returns (bool) {\n        bool allisgood = true;\n        AddressBook book = AddressBook(addressBookAddress);\n        for(uint i = 0; i < milkDeliveries.length; i++){\n            MilkDelivery milk = MilkDelivery(milkDeliveries[i]);\n            if(!book.checkGeoBoundaries(milk.milkProducerAddress()) || !book.checkGeoBoundaries(milk.dairyAddress())){\n                allisgood = false;\n                break;\n            }\n        }\n        return allisgood;\n    }\n\n    function getMilkDeliveriesCount() public view returns(uint) {\n        return milkDeliveries.length;\n    }\n\n}\n",
  "sourcePath": "/Users/Amaury 1/IdeaProjects/tp-quorum-public/contracts/DairyProduction.sol",
  "compiler": {
    "name": "solc",
    "version": "0.5.0+commit.1d4f565a.Emscripten.clang"
  },
  "schemaVersion": "3.4.3",
  "updatedAt": "2021-11-23T13:39:08.060Z",
  "devdoc": {
    "methods": {
      "checkGeoBoundaries()": {
        "details": "checks all milk producers and the dairy using the AddressBook",
        "return": "true if all parties are geo compliant"
      }
    }
  },
  "userdoc": {
    "methods": {
      "checkGeoBoundaries()": {
        "notice": "Checks if all parties in the smart-contract are geo compliant."
      }
    }
  }
}