{
  "contractName": "DairyProduction",
  "abi": [
    {
      "constant": true,
      "inputs": [],
      "name": "quantity",
      "outputs": [
        {
          "name": "",
          "type": "uint32"
        }
      ],
      "payable": false,
      "stateMutability": "view",
      "type": "function"
    },
    {
      "constant": true,
      "inputs": [],
      "name": "dairy",
      "outputs": [
        {
          "name": "",
          "type": "address"
        }
      ],
      "payable": false,
      "stateMutability": "view",
      "type": "function"
    },
    {
      "constant": true,
      "inputs": [
        {
          "name": "",
          "type": "uint256"
        }
      ],
      "name": "milkDeliveries",
      "outputs": [
        {
          "name": "",
          "type": "address"
        }
      ],
      "payable": false,
      "stateMutability": "view",
      "type": "function"
    },
    {
      "anonymous": false,
      "inputs": [
        {
          "indexed": true,
          "name": "dairyProductionAddress",
          "type": "address"
        },
        {
          "indexed": true,
          "name": "dairy",
          "type": "address"
        },
        {
          "indexed": false,
          "name": "quantity",
          "type": "uint32"
        }
      ],
      "name": "CheeseProduced",
      "type": "event"
    }
  ],
  "bytecode": "0x608060405234801561001057600080fd5b5061020a806100206000396000f3fe608060405260043610610057576000357c0100000000000000000000000000000000000000000000000000000000900463ffffffff16806317fc45e21461005c57806349ea420c146100935780634ca5d142146100ea575b600080fd5b34801561006857600080fd5b50610071610165565b604051808263ffffffff1663ffffffff16815260200191505060405180910390f35b34801561009f57600080fd5b506100a861017a565b604051808273ffffffffffffffffffffffffffffffffffffffff1673ffffffffffffffffffffffffffffffffffffffff16815260200191505060405180910390f35b3480156100f657600080fd5b506101236004803603602081101561010d57600080fd5b81019080803590602001909291905050506101a0565b604051808273ffffffffffffffffffffffffffffffffffffffff1673ffffffffffffffffffffffffffffffffffffffff16815260200191505060405180910390f35b6000809054906101000a900463ffffffff1681565b600260009054906101000a900473ffffffffffffffffffffffffffffffffffffffff1681565b6001818154811015156101af57fe5b906000526020600020016000915054906101000a900473ffffffffffffffffffffffffffffffffffffffff168156fea165627a7a72305820a5af6e71bcd2576ffeaae8d6ada8923c8357831659d4fc46d77e09d28b73cf0c0029",
  "source": "pragma solidity ^0.5.0;\r\n\r\nimport \"./MilkDelivery.sol\";\r\nimport \"./AddressBook.sol\";\r\n\r\n\r\ncontract DairyProduction {\r\n    uint32 public quantity; // <1>\r\n    address[] public milkDeliveries; // <2>\r\n    address public dairy; // <3>\r\n    address addressBookAddress; // <4>\r\n\r\n    event CheeseProduced(address indexed dairyProductionAddress, address indexed dairy, uint32 quantity);\r\n\r\n}\r\n",
  "sourcePath": "C:/Users/Lansana Diomande/Documents/tp-quorum-public/contracts/DairyProduction.sol",
  "compiler": {
    "name": "solc",
    "version": "0.5.0+commit.1d4f565a.Emscripten.clang"
  },
  "schemaVersion": "3.0.22",
  "updatedAt": "2021-11-16T10:26:56.468Z",
  "devdoc": {
    "methods": {}
  },
  "userdoc": {
    "methods": {}
  }
}