{
  "contractName": "MilkDelivery",
  "abi": [
    {
      "constant": true,
      "inputs": [],
      "name": "dairyApproval",
      "outputs": [
        {
          "name": "",
          "type": "bool"
        }
      ],
      "payable": false,
      "stateMutability": "view",
      "type": "function"
    },
    {
      "constant": true,
      "inputs": [],
      "name": "dairyAddress",
      "outputs": [
        {
          "name": "",
          "type": "address"
        }
      ],
      "payable": false,
      "stateMutability": "view",
      "type": "function"
    },
    {
      "constant": true,
      "inputs": [],
      "name": "consumed",
      "outputs": [
        {
          "name": "",
          "type": "bool"
        }
      ],
      "payable": false,
      "stateMutability": "view",
      "type": "function"
    },
    {
      "constant": true,
      "inputs": [],
      "name": "price",
      "outputs": [
        {
          "name": "",
          "type": "uint32"
        }
      ],
      "payable": false,
      "stateMutability": "view",
      "type": "function"
    },
    {
      "constant": true,
      "inputs": [],
      "name": "liters",
      "outputs": [
        {
          "name": "",
          "type": "uint32"
        }
      ],
      "payable": false,
      "stateMutability": "view",
      "type": "function"
    },
    {
      "constant": true,
      "inputs": [],
      "name": "milkProducerAddress",
      "outputs": [
        {
          "name": "",
          "type": "address"
        }
      ],
      "payable": false,
      "stateMutability": "view",
      "type": "function"
    },
    {
      "inputs": [
        {
          "name": "_dairyAddress",
          "type": "address"
        }
      ],
      "payable": false,
      "stateMutability": "nonpayable",
      "type": "constructor"
    },
    {
      "anonymous": false,
      "inputs": [
        {
          "indexed": true,
          "name": "milkDeliveryAddress",
          "type": "address"
        },
        {
          "indexed": true,
          "name": "milkProducer",
          "type": "address"
        },
        {
          "indexed": false,
          "name": "dairyAddress",
          "type": "address"
        },
        {
          "indexed": false,
          "name": "liters",
          "type": "uint32"
        },
        {
          "indexed": false,
          "name": "price",
          "type": "uint32"
        }
      ],
      "name": "MilkDelivered",
      "type": "event"
    },
    {
      "constant": false,
      "inputs": [
        {
          "name": "_liters",
          "type": "uint32"
        },
        {
          "name": "_price",
          "type": "uint32"
        }
      ],
      "name": "sendMilk",
      "outputs": [],
      "payable": false,
      "stateMutability": "nonpayable",
      "type": "function"
    },
    {
      "constant": false,
      "inputs": [],
      "name": "validateDelivery",
      "outputs": [],
      "payable": false,
      "stateMutability": "nonpayable",
      "type": "function"
    },
    {
      "constant": true,
      "inputs": [],
      "name": "checkDeliveryApproval",
      "outputs": [
        {
          "name": "",
          "type": "bool"
        }
      ],
      "payable": false,
      "stateMutability": "view",
      "type": "function"
    },
    {
      "constant": false,
      "inputs": [],
      "name": "consume",
      "outputs": [],
      "payable": false,
      "stateMutability": "nonpayable",
      "type": "function"
    }
  ],
  "bytecode": "0x608060405234801561001057600080fd5b5060405160208061080a8339810180604052602081101561003057600080fd5b8101908080519060200190929190505050600073ffffffffffffffffffffffffffffffffffffffff168173ffffffffffffffffffffffffffffffffffffffff161415151561007d57600080fd5b336000600a6101000a81548173ffffffffffffffffffffffffffffffffffffffff021916908373ffffffffffffffffffffffffffffffffffffffff16021790555080600160006101000a81548173ffffffffffffffffffffffffffffffffffffffff021916908373ffffffffffffffffffffffffffffffffffffffff160217905550506106fb8061010f6000396000f3fe6080604052600436106100a4576000357c0100000000000000000000000000000000000000000000000000000000900463ffffffff1680631dedc6f7146100a95780633a10ead2146100c0578063437b7ae11461011157806349f6c29b146101405780636763657414610197578063a035b1fe146101c6578063b749be85146101fd578063c6eaae3a14610234578063c80df79914610263578063e3d8e46d146102ba575b600080fd5b3480156100b557600080fd5b506100be6102d1565b005b3480156100cc57600080fd5b5061010f600480360360408110156100e357600080fd5b81019080803563ffffffff169060200190929190803563ffffffff1690602001909291905050506102ee565b005b34801561011d57600080fd5b506101266104b5565b604051808215151515815260200191505060405180910390f35b34801561014c57600080fd5b506101556104c8565b604051808273ffffffffffffffffffffffffffffffffffffffff1673ffffffffffffffffffffffffffffffffffffffff16815260200191505060405180910390f35b3480156101a357600080fd5b506101ac6104ee565b604051808215151515815260200191505060405180910390f35b3480156101d257600080fd5b506101db610501565b604051808263ffffffff1663ffffffff16815260200191505060405180910390f35b34801561020957600080fd5b50610212610517565b604051808263ffffffff1663ffffffff16815260200191505060405180910390f35b34801561024057600080fd5b5061024961052c565b604051808215151515815260200191505060405180910390f35b34801561026f57600080fd5b50610278610542565b604051808273ffffffffffffffffffffffffffffffffffffffff1673ffffffffffffffffffffffffffffffffffffffff16815260200191505060405180910390f35b3480156102c657600080fd5b506102cf610568565b005b6001600060096101000a81548160ff021916908315150217905550565b600060099054906101000a900460ff16151515610373576040517f08c379a00000000000000000000000000000000000000000000000000000000081526004018080602001828103825260088152602001807f436f6e73756d656400000000000000000000000000000000000000000000000081525060200191505060405180910390fd5b80600060046101000a81548163ffffffff021916908363ffffffff160217905550816000806101000a81548163ffffffff021916908363ffffffff1602179055506000600a9054906101000a900473ffffffffffffffffffffffffffffffffffffffff1673ffffffffffffffffffffffffffffffffffffffff163073ffffffffffffffffffffffffffffffffffffffff167f2f7a1bf8755c7f038573595805c516d1b3b99d5f52e8a6243c02542220fb7c94600160009054906101000a900473ffffffffffffffffffffffffffffffffffffffff168585604051808473ffffffffffffffffffffffffffffffffffffffff1673ffffffffffffffffffffffffffffffffffffffff1681526020018363ffffffff1663ffffffff1681526020018263ffffffff1663ffffffff168152602001935050505060405180910390a35050565b600060089054906101000a900460ff1681565b600160009054906101000a900473ffffffffffffffffffffffffffffffffffffffff1681565b600060099054906101000a900460ff1681565b600060049054906101000a900463ffffffff1681565b6000809054906101000a900463ffffffff1681565b60008060089054906101000a900460ff16905090565b6000600a9054906101000a900473ffffffffffffffffffffffffffffffffffffffff1681565b600060099054906101000a900460ff161515156105ed576040517f08c379a00000000000000000000000000000000000000000000000000000000081526004018080602001828103825260088152602001807f436f6e73756d656400000000000000000000000000000000000000000000000081525060200191505060405180910390fd5b600160009054906101000a900473ffffffffffffffffffffffffffffffffffffffff1673ffffffffffffffffffffffffffffffffffffffff163373ffffffffffffffffffffffffffffffffffffffff161415156106b2576040517f08c379a000000000000000000000000000000000000000000000000000000000815260040180806020018281038252600a8152602001807f4f6e6c792064616972790000000000000000000000000000000000000000000081525060200191505060405180910390fd5b6001600060086101000a81548160ff02191690831515021790555056fea165627a7a723058207d9b5556bf374314fbdeefb91141ba92b41b3d15ca60b8dbc4d7f457e61bb11d0029",
  "source": "pragma solidity ^0.5.0;\n\n\ncontract MilkDelivery {\n    uint32 public liters;\n    uint32 public price;\n    bool public dairyApproval;\n    bool public consumed;\n    address public milkProducerAddress;\n    address public dairyAddress;\n\n    event MilkDelivered(address indexed milkDeliveryAddress,\n        address indexed milkProducer,\n        address dairyAddress,\n        uint32 liters, uint32 price);\n\n    constructor(address _dairyAddress) public {\n        require(_dairyAddress != address(0));\n        milkProducerAddress = msg.sender;\n        dairyAddress = _dairyAddress;\n\n        // TODO: initialize dairyApproval to a meaningful value\n        // TODO: initialize consumed to a meaningful value\n    }\n\n    /// Keeps track of a milk delivery\n    /// @dev should only be called by the milk producers of this contract\n    function sendMilk(uint32 _liters, uint32 _price) public onGoing() {\n        price = _price;\n        liters = _liters;\n        emit MilkDelivered(address(this),milkProducerAddress,dairyAddress,_liters,_price);\n    }\n\n    /// Mark the delivery as accepted by the dairy\n    function validateDelivery() onGoing() dairyOnly() public {\n        // TODO: implement this!\n        dairyApproval = true;\n    }\n\n    /// Return true if the delivery was acknowledged by the dairy (laiterie)\n    function checkDeliveryApproval() public view returns (bool) {\n        // TODO: implement this!\n        return dairyApproval;\n    }\n\n    /// Mark the delivery as consumed (used in order to make some cheese)\n    function consume() external {\n        consumed = true;\n        // TODO: implement this!\n    }\n\n    /// Modifier based on the value of consumed.\n    /// @dev if consumed, then the delivery is not onGoing\n    modifier onGoing() {\n        require(!consumed,\"Consumed\");\n        _;\n        // TODO: implement this!\n    }\n\n    /// Modifier ensuring that only the dairy of this milk delivery can make a call\n    modifier dairyOnly() {\n        require(msg.sender == dairyAddress,\"Only dairy\");\n        _;\n        // TODO: implement this!\n    }\n\n}\n",
  "sourcePath": "/Users/Amaury 1/IdeaProjects/tp-quorum-public/contracts/MilkDelivery.sol",
  "compiler": {
    "name": "solc",
    "version": "0.5.0+commit.1d4f565a.Emscripten.clang"
  },
  "schemaVersion": "3.4.3",
  "updatedAt": "2021-11-23T13:25:46.712Z",
  "devdoc": {
    "methods": {
      "sendMilk(uint32,uint32)": {
        "details": "should only be called by the milk producers of this contract"
      }
    }
  },
  "userdoc": {
    "methods": {
      "checkDeliveryApproval()": {
        "notice": "Return true if the delivery was acknowledged by the dairy (laiterie)"
      },
      "consume()": {
        "notice": "Mark the delivery as consumed (used in order to make some cheese)"
      },
      "sendMilk(uint32,uint32)": {
        "notice": "Keeps track of a milk delivery"
      },
      "validateDelivery()": {
        "notice": "Mark the delivery as accepted by the dairy"
      }
    }
  }
}