{
  "contractName": "MilkDelivery",
  "abi": [
    {
      "constant": true,
      "inputs": [],
      "name": "dairyApproval",
      "outputs": [
        {
          "name": "",
          "type": "bool"
        }
      ],
      "payable": false,
      "stateMutability": "view",
      "type": "function"
    },
    {
      "constant": true,
      "inputs": [],
      "name": "dairyAddress",
      "outputs": [
        {
          "name": "",
          "type": "address"
        }
      ],
      "payable": false,
      "stateMutability": "view",
      "type": "function"
    },
    {
      "constant": true,
      "inputs": [],
      "name": "consumed",
      "outputs": [
        {
          "name": "",
          "type": "bool"
        }
      ],
      "payable": false,
      "stateMutability": "view",
      "type": "function"
    },
    {
      "constant": true,
      "inputs": [],
      "name": "price",
      "outputs": [
        {
          "name": "",
          "type": "uint32"
        }
      ],
      "payable": false,
      "stateMutability": "view",
      "type": "function"
    },
    {
      "constant": true,
      "inputs": [],
      "name": "liters",
      "outputs": [
        {
          "name": "",
          "type": "uint32"
        }
      ],
      "payable": false,
      "stateMutability": "view",
      "type": "function"
    },
    {
      "constant": true,
      "inputs": [],
      "name": "milkProducerAddress",
      "outputs": [
        {
          "name": "",
          "type": "address"
        }
      ],
      "payable": false,
      "stateMutability": "view",
      "type": "function"
    },
    {
      "inputs": [
        {
          "name": "_dairyAddress",
          "type": "address"
        }
      ],
      "payable": false,
      "stateMutability": "nonpayable",
      "type": "constructor"
    },
    {
      "anonymous": false,
      "inputs": [
        {
          "indexed": true,
          "name": "milkDeliveryAddress",
          "type": "address"
        },
        {
          "indexed": true,
          "name": "milkProducer",
          "type": "address"
        },
        {
          "indexed": false,
          "name": "dairyAddress",
          "type": "address"
        },
        {
          "indexed": false,
          "name": "liters",
          "type": "uint32"
        },
        {
          "indexed": false,
          "name": "price",
          "type": "uint32"
        }
      ],
      "name": "MilkDelivered",
      "type": "event"
    },
    {
      "constant": false,
      "inputs": [
        {
          "name": "_liters",
          "type": "uint32"
        },
        {
          "name": "_price",
          "type": "uint32"
        }
      ],
      "name": "sendMilk",
      "outputs": [],
      "payable": false,
      "stateMutability": "nonpayable",
      "type": "function"
    },
    {
      "constant": false,
      "inputs": [],
      "name": "validateDelivery",
      "outputs": [],
      "payable": false,
      "stateMutability": "nonpayable",
      "type": "function"
    },
    {
      "constant": true,
      "inputs": [],
      "name": "checkDeliveryApproval",
      "outputs": [
        {
          "name": "",
          "type": "bool"
        }
      ],
      "payable": false,
      "stateMutability": "view",
      "type": "function"
    },
    {
      "constant": false,
      "inputs": [],
      "name": "consume",
      "outputs": [],
      "payable": false,
      "stateMutability": "nonpayable",
      "type": "function"
    }
  ],
  "bytecode": "0x608060405234801561001057600080fd5b506040516020806103f88339810180604052602081101561003057600080fd5b8101908080519060200190929190505050506103a7806100516000396000f3fe6080604052600436106100a4576000357c0100000000000000000000000000000000000000000000000000000000900463ffffffff1680631dedc6f7146100a95780633a10ead2146100c0578063437b7ae11461011157806349f6c29b146101405780636763657414610197578063a035b1fe146101c6578063b749be85146101fd578063c6eaae3a14610234578063c80df79914610263578063e3d8e46d146102ba575b600080fd5b3480156100b557600080fd5b506100be6102d1565b005b3480156100cc57600080fd5b5061010f600480360360408110156100e357600080fd5b81019080803563ffffffff169060200190929190803563ffffffff1690602001909291905050506102d3565b005b34801561011d57600080fd5b506101266102d7565b604051808215151515815260200191505060405180910390f35b34801561014c57600080fd5b506101556102ea565b604051808273ffffffffffffffffffffffffffffffffffffffff1673ffffffffffffffffffffffffffffffffffffffff16815260200191505060405180910390f35b3480156101a357600080fd5b506101ac610310565b604051808215151515815260200191505060405180910390f35b3480156101d257600080fd5b506101db610323565b604051808263ffffffff1663ffffffff16815260200191505060405180910390f35b34801561020957600080fd5b50610212610339565b604051808263ffffffff1663ffffffff16815260200191505060405180910390f35b34801561024057600080fd5b5061024961034e565b604051808215151515815260200191505060405180910390f35b34801561026f57600080fd5b50610278610353565b604051808273ffffffffffffffffffffffffffffffffffffffff1673ffffffffffffffffffffffffffffffffffffffff16815260200191505060405180910390f35b3480156102c657600080fd5b506102cf610379565b005b565b5050565b600060089054906101000a900460ff1681565b600160009054906101000a900473ffffffffffffffffffffffffffffffffffffffff1681565b600060099054906101000a900460ff1681565b600060049054906101000a900463ffffffff1681565b6000809054906101000a900463ffffffff1681565b600090565b6000600a9054906101000a900473ffffffffffffffffffffffffffffffffffffffff1681565b56fea165627a7a72305820278d2333bf45e590eb25d524bad8a649c7d311db1045190c3f6a15e79191e7c70029",
  "source": "pragma solidity ^0.5.0;\r\n\r\n\r\ncontract MilkDelivery {\r\n    uint32 public liters;\r\n    uint32 public price;\r\n    bool public dairyApproval;\r\n    bool public consumed;\r\n    address public milkProducerAddress;\r\n    address public dairyAddress;\r\n\r\n    event MilkDelivered(address indexed milkDeliveryAddress,\r\n                        address indexed milkProducer,\r\n                        address dairyAddress, \r\n                        uint32 liters, uint32 price);\r\n\r\n    constructor(address _dairyAddress) public {\r\n        // TODO: check that _dairyAddress address (laiterie) is not empty\r\n        // TODO: keep track of the milk producer (éleveur) in milkProducerAddress \r\n        // TODO: keep track of the dairy address (laiterie) in dairyAddress\r\n        // TODO: initialize dairyApproval to a meaningful value\r\n        // TODO: initialize consumed to a meaningful value\r\n    }\r\n\r\n    /// Keeps track of a milk delivery\r\n    /// @dev should only be called by the milk producers of this contract\r\n    function sendMilk(uint32 _liters, uint32 _price) public onGoing() {\r\n        // TODO: keep track of the number of liters sent and the price\r\n        // TODO: emit a MilkDeliveredEvent\r\n    }\r\n\r\n    /// Mark the delivery as accepted by the dairy\r\n    function validateDelivery() onGoing() dairyOnly() public {\r\n        // TODO: implement this!\r\n    }\r\n\r\n    /// Return true if the delivery was acknowledged by the dairy (laiterie)\r\n    function checkDeliveryApproval() public view returns (bool) {\r\n        // TODO: implement this!\r\n    }\r\n\r\n    /// Mark the delivery as consumed (used in order to make some cheese)\r\n    function consume() external {\r\n        // TODO: implement this!\r\n    }\r\n\r\n    /// Modifier based on the value of consumed.\r\n    /// @dev if consumed, then the delivery is not onGoing\r\n    modifier onGoing() {\r\n        _;\r\n        // TODO: implement this!\r\n    }\r\n\r\n    /// Modifier ensuring that only the dairy of this milk delivery can make a call\r\n    modifier dairyOnly() {\r\n        _;\r\n        // TODO: implement this!\r\n    }\r\n\r\n}\r\n",
  "sourcePath": "C:\\Users\\Lansana Diomande\\Documents\\tp-quorum-public\\contracts\\MilkDelivery.sol",
  "compiler": {
    "name": "solc",
    "version": "0.5.0+commit.1d4f565a.Emscripten.clang"
  },
  "schemaVersion": "3.0.22",
  "updatedAt": "2021-11-16T10:26:56.481Z",
  "devdoc": {
    "methods": {
      "sendMilk(uint32,uint32)": {
        "details": "should only be called by the milk producers of this contract"
      }
    }
  },
  "userdoc": {
    "methods": {
      "checkDeliveryApproval()": {
        "notice": "Return true if the delivery was acknowledged by the dairy (laiterie)"
      },
      "consume()": {
        "notice": "Mark the delivery as consumed (used in order to make some cheese)"
      },
      "validateDelivery()": {
        "notice": "Mark the delivery as accepted by the dairy"
      }
    }
  }
}